:020000040800F2
:10000000F0060020CD01000889260008812600089E
:1000100085260008990B0008A926000800000000AA
:100020000000000000000000000000009126000811
:100030009D0B0008000000008D2600089526000892
:10004000E7010008E7010008E7010008E7010008F0
:10005000E7010008E7010008E7010008E7010008E0
:10006000E7010008E7010008E7010008E7010008D0
:10007000E7010008E7010008E7010008E7010008C0
:10008000E7010008E7010008DD0A0008E7010008B1
:10009000E7010008E7010008E7010008E7010008A0
:1000A000E7010008E7010008E7010008E701000890
:1000B0009D260008E701000800000000E701000895
:1000C000E70100080000000000000000E701000850
:1000D00000000000E7010008E70100080000000040
:1000E000E7010008E7010008E701000800F002F856
:1000F00000F05DF814A696E8000CB244B344DA456B
:1001000001D100F054F8BAE80F000FA696E83000CD
:10011000A5EB040504EB0607AAEB0704A7F101070A
:100120004FEA15154FEA3414A4F10104AC4201D38F
:1001300000F03DF813F0010F18BFFB1A43F0010364
:1001400000F001F8DBE71847B83C0000D83C00009D
:10015000103A24BF78C878C1FAD8520724BF30C8F3
:1001600030C144BF04680C60704700007047000055
:100170000023002400250026103A28BF78C1FBD8B0
:10018000520728BF30C148BF0B607047662903F093
:10019000C885002070471FB500F02AFB040000202E
:1001A000002103F0E9F8E0601FBD10B510BD00F0BC
:1001B0001FFC1146FFF7EFFF02F04EFB00F03DFC85
:1001C00003B4FFF7F2FF03BC00F080FC094880474E
:1001D00009480047FEE7FEE7FEE7FEE7FEE7FEE729
:1001E000FEE7FEE7FEE7FEE704480549054A064B41
:1001F0007047000099260008ED000008F00000207C
:10020000F0060020F0020020F00200200FB41CB520
:10021000074B06AA7B4469460090059800F0CFFA88
:100220000020694600F0DEFA1CBC5DF814FB0000FB
:10023000CD0500002DE9F0474FF0000A894604463D
:10024000C0F820A02046E1688847002876D02528FD
:1002500006D0D4E901219047206A401C2062F1E7D2
:10026000E168204600258847C4F81CA00646002700
:10027000C4F818A02A2E09D0304603F075F838B318
:1002800004EB8708303EC8F8186019E059F8041BE1
:10029000204604EB87029161E1688847012F0646FA
:1002A00018D1E069002820DA25F020051DE0D8F8F3
:1002B000180000EB800006EB40003038C8F818004A
:1002C0002046E1688847064603F04EF80028EED144
:1002D000012F0AD02E2E08D12046E16888477F1CC6
:1002E0000646022F45F02005C4DBA069002803DA8A
:1002F000404245F00105A061E80701D025F0100556
:10030000B6B1A6F14100192802D8203645F400659F
:100310004A463146204625604D46FFF737FF58B123
:10032000012806D0ED1D25F0070000F1080989E736
:1003300004E005F1040985E730468AE7206ABDE854
:10034000F0874FF0000200B51346944696462039D8
:1003500022BFA0E80C50A0E80C50B1F12001BFF47E
:10036000F7AF090728BFA0E80C5048BF0CC05DF8E4
:1003700004EB890028BF40F8042B08BF704748BF32
:1003800020F8022B11F0804F18BF00F8012B7047A6
:100390007047704770472DE9FF4F0C461E464FF0DF
:1003A000FF378BB0D2E90001DDF860800A908A4601
:1003B000C1F30A5505B93D46002108464FF000003B
:1003C000BAF1000F00F4400005DA00EB80004FF4B2
:1003D000400101EA50004FEA9059B9F1010F00DDE8
:1003E000B9460A9850EA4A000ED044F61050A5F2D9
:1003F000FF3545432F14B8F1000F1ED07542291E5A
:100400001EDDC9F100021CE0B8F1010F4FF0000041
:1004100001D0302103E0F24305E02154401CB042FA
:10042000FBDB30460022002121540B99C1F80880E3
:10043000C1E900200FB0BDE8F08FBD1B6D1CDEE7E9
:100440004A4600DA694206A800F05CFA06AB93E877
:10045000070003AB83E8070050460A9902F0A7FBA8
:100460008DE80700A0F500501F3800900398002D7C
:100470000ADD42F21F014A460844002303A9039003
:10048000684602F011FE09E0A0F500504A461F3808
:10049000002303A90390684602F01BFE8DE80700C5
:1004A0000004000C03D04FF0FF30410800E010467C
:1004B000B8F1000F03D00022009215461EE0751E11
:1004C00005D400F099F9303262556D1EF9D5B34666
:1004D0000122084302D000227F1C04E0207830284B
:1004E00001D100227F1E002A099784D01DE0112D22
:1004F00007DA00F081F9303262556D1C50EA0102D2
:10050000F5D1084302D00098C8B10EE00021681E62
:1005100005E0235C625C63542254401E491C814206
:10052000F7DBAB46A81B401E0990002004F80B0027
:100530000B98099AC0F80880C0E9002B7AE71126C9
:100540004FF0000857E72DE9F04F88460446D21DCA
:1005500022F0070191B0D1E90001CDE90A0102F0D2
:10056000EFFE02460B98C00F01D02D2007E0206857
:10057000810701D52B2002E0202101EAC000032AD7
:10058000099001D0072A05DB03464146204600F0CA
:1005900079F90BE12078800601D5E06900E00620BA
:1005A000B8F1650F814606D0B8F1660F18D0B8F1E2
:1005B000670F70D131E00020B9F1110F009001DB1D
:1005C000112301E009F101030AAA01A90CA8FFF710
:1005D000E2FEDDE90C70002609F10105834647E0E3
:1005E00001204B4600904FF000470AAA01A90CA831
:1005F000FFF7D1FEDDE90DB00C995D46002610B97C
:1006000009F101000D18B9EB050003D4C0F1FF3664
:1006100009F10105A5EB09002BE0B9F1010F01DAA1
:100620004FF001090020B9F1110F0090484601DD9B
:10063000112300E003460AAA01A90CA8FFF7ABFEAC
:10064000DDE90C704D4600268346207800070AD469
:10065000AB4500DA5D4601A8012D04DD411911F812
:10066000011C302907D04F4502DA17F1040F04DAD4
:10067000012082460FE06D1EEEE7002F02DCED1B2D
:100680003E4403E0781CA84200DD7D1CB81B00F14D
:10069000010A4FF000472078000703D4AA4501DB88
:1006A0004FF0FF3A0021B7F1004F0DF143088DF8EC
:1006B000431024D002202B23002F01DA7F422D2368
:1006C0000A21021EA0F1010000DC5FB197FBF1FCE2
:1006D00097FBF1F201FB1C7C17460CF1300C08F87B
:1006E00001CDEEE7A8F1010003702188090501D5CD
:1006F000452100E06521A0F1010800F8011C0998DE
:100700000FA9A1EB0807FF1D00B10120411901EB62
:10071000EA70A1693844081A401EA0612078C0061A
:1007200002D42046AFF30080099828B1D4E9012112
:100730009047206A401C20622078C00622D52046BF
:10074000AFF300801EE0002E04DBB34502DD01A8FC
:10075000805D00E03020D4E901219047206A401CF0
:100760002062761CAAF101005FEA000A0AD100F0BB
:100770003FF8C0680168405CD4E901219047206AD5
:10078000401C2062281EA5F10105DCDC07E0D4E94D
:10079000012118F8010B9047206A401C2062381E86
:1007A000A7F10107F3DC2046AFF30080032011B06E
:1007B00041E6000001694A1C02610878704700B5F3
:1007C0008FB0CDE901310021059105497944CDE98A
:1007D000031011466846FFF72DFD0FB000BD000065
:1007E000E5FFFFFF0A6802F8010B0A60704700008E
:1007F000004870473000002030B5B0F10A0271F1B6
:1008000000034FEA900E4EEA817EB0EB0E0061EBE2
:1008100091014FEA101E4EEA017E10EB0E0041EBF3
:1008200011114FEA102E4EEA016E10EB0E0041EB53
:1008300011214FEA104E4EEA014E10EB0E0041EB33
:100840001141401841F100014FEAD00040EA4170E7
:100850004FEAD1014FEA810444EA907410EB80051D
:1008600044EB01046D1944EB0404521BA3414FF007
:10087000000348BF0A3200D530BD401C41F10001E1
:1008800030BD00002DE9F0411F46044603260168F3
:10089000072A01F4006004DB08B116A505E016A5DF
:1008A00003E008B115A500E015A521F010002060B7
:1008B000A069C01EA0610FB1401EA0612046AFF329
:1008C00000804FB1D4E9012138469047206A401C8E
:1008D0002062C01C206206E0206AFAE7D4E9012108
:1008E00015F8010B9047761EF8D22046AFF3008032
:1008F000BDE8F0814E414E006E616E00494E4600EB
:10090000696E66002DE9F047814616468AB0354883
:1009100078440DC88DE80D0032487844801C03AC43
:100920000DC884E80D0041F69B300844372190FB48
:10093000F1F290FBF1F5A5F1800501FB12041B3CDF
:1009400002D56442012000E00020DFF898A0804634
:100950000027FA44AAF1BE0A0EE0E0070AD03246A8
:10096000684607EB470101230AEB810102F0B1FB66
:100970008DE8070064107F1C002CEED1194F7F44D6
:10098000AE3F19E0E80715D007EB04100DF1180A87
:1009900090E80E008AE80E00C068F04201D1981974
:1009A00008903246012306A903A802F092FB03AB8C
:1009B00083E807006D10641C002DE3D14FF00103A4
:1009C00032466946B8F1000F03A802D002F06CFB72
:1009D00001E002F07EFBC9E90001C9F808200AB075
:1009E000BDE8F087903400000048704710000020F8
:1009F0007546FFF7F9FFAE4605006946534620F0FD
:100A00000700854618B020B5FFF7EEFBBDE8204093
:100A10004FF000064FF000074FF000084FF0000BBA
:100A2000AC46ACE8C009ACE8C009ACE8C009ACE829
:100A3000C00921F007018D46704710B50446AFF399
:100A400000802046BDE81040FFF7BABB4FF0013CE4
:100A500050F8042B51F8043B9A4221D1A2EB0C032D
:100A6000934313EACC1317D150F8042B51F8043BED
:100A70009A4215D1A2EB0C03934313EACC130BD18A
:100A800050F8042B51F8043B9A4209D1A2EB0C0315
:100A9000934313EACC13DBD04FF00000704700BF44
:100AA000D01A01BAB1FA81F101F0180122FA01F06D
:100AB000CB40DBB2C0B2C01AC1F120012CFA01F365
:100AC000D11A914311EAC311E6D1704701491820A8
:100AD000ABBEFEE7260002007047000040F2740043
:100AE000C2F2000000F020B9B0B582B00446002088
:100AF000019021688A68D2074BD1886840F00100D4
:100B0000886040F20800C2F2000000684DF6836180
:100B1000C4F21B31A0FB0101880C01900198A0B127
:100B2000019801380190019878B10198013801903D
:100B3000019850B1019801380190019828B10198AD
:100B40000138019001980028EAD100F00BFD2168DE
:100B50008968C9071CD1054603E000BF8068C0074B
:100B600016D100F0FFFC411B20680329F6D38168F1
:100B7000C907F3D1A06A40F01000A062E06A40F01B
:100B80000100E062002084F82400012002B0B0BD22
:100B9000002002B0B0BD0000FEE70000704700007A
:100BA0007047000010B581B00022009290F8242018
:100BB000012A03D10221084601B010BD4B68012271
:100BC000062B80F8242033D8D0F800C003EB830331
:100BD0005A1F1F23DCF834E003FA02F40B682EEAF4
:100BE000040403FA02F22243CCF83420092B03EB6D
:100BF000430249D9DCF80CE01E3A07248968944086
:100C00002EEA0404914023F001022143102ACCF87B
:100C10000C1043D142F20841C4F20101A1F10802D3
:100C2000944543D0816A41F020018162012136E080
:100C3000D0F800C00C2B03EB830213D8233A1F23F8
:100C4000DCF830E003FA02F40B682EEA040403FA3D
:100C500002F22243CCF83020092B03EB4302C9D81F
:100C600012E000BF413A1F23DCF82CE003FA02F443
:100C70000B682EEA040403FA02F22243CCF82C207B
:100C8000092B03EB4302B5D8DCF810300724896840
:100C90009440A34391401943CCF810100021002246
:100CA00080F82420084601B010BD00BF0A68120277
:100CB000F4D40A68102B42F400020A60EED140F22C
:100CC0000801C2F2000109684DF68362C4F21B32CA
:100CD000A1FB0212910C01EB8101490000910099E6
:100CE0000029DBD000990139009100990029D5D065
:100CF00000990139009100990029CFD0009901395C
:100D0000009100990029C9D00099013900910099FA
:100D100000294FF00001E5D1C1E700007047000055
:100D20000068C06C7047000070B504460068056834
:100D30004668B10627D515F0020124D0A16AC9067C
:100D400003D4A16A41F40071A162816801F46021B9
:100D5000B1F5602F10D1217B71B9416821F02001DC
:100D60004160A06A20F48070A062A06AC00403D42D
:100D7000A06A40F00100A0622046FFF7CFFF206884
:100D80006FF012010160310633D515F0040130D047
:100D9000A16AC90603D4A16A41F40051A162816825
:100DA00001F4E041B1F5E04F10D1416821F080013C
:100DB0004160A06A20F48050A062A06AC00511D4EE
:100DC000A06A40F00100A0620CE000BF4168490544
:100DD00008D4816801F46021B1F5602F02D1217B34
:100DE0000029E2D02046FFF7DBFE20686FF00C01FF
:100DF000016070060ED515F0010008BF70BDA06A35
:100E000040F48030A062204600F0B6F820686FF011
:100E10000101016070BD0000002804BF012070477F
:100E2000B0B50446806A28B121688868C0070CD133
:100E300015E000BF0020E06284F82400204600F0A6
:100E40009DF821688868C00709D0886820F00100F3
:100E5000886000F087FB21688A68D20726D1A06AE3
:100E6000C0063AD4A06A41F2021290430230A06256
:100E7000E069D4E9013240EA030C531EB3FA83F36C
:100E80005D091346B2F5807F18BF2B02207D257BBC
:100E900001284CEA450030D135B3A56A45F020055C
:100EA000A562E56A45F00105E56226E0054602E037
:100EB0008868C007D3D000F055FB401B2168032889
:100EC000F6D38868C007F3D0A06A40F01000A06293
:100ED000E06A40F00100E062A06AA06A40F0100001
:100EE000A0620120B0BD00BFD4F818C04EF60005C6
:100EF000CFF6FF7505EB4C352B434D68B2F5807F7F
:100F000025F4694543EA05034B608B684FF2FD7594
:100F1000CFF6E17503EA050343EA00038B6001D0D5
:100F2000012A07D122690023CFF6F07303EB0252A6
:100F300001E000BF0022CB6A23F470031A43CA62A7
:100F4000896840F6FE62CFF61F721140814207D1D8
:100F50000020E062A16A012262F30101A162B0BD3A
:100F6000A06A40F0100020F00200A062E06A40F0A9
:100F70000100E0620120B0BD7047000080B586B07E
:100F8000014640F60000C4F20100096800F5E05295
:100F900091424FF00001CDE9041101D006B080BDAF
:100FA00041F21801C4F202010A6842F400720A60B8
:100FB0000A6802F400720192019A0A6842F004027F
:100FC0000A60096801F0040101910199012102916F
:100FD0000321039102A900F0B9F912200021002297
:100FE00000F040FB122000F02BFB06B080BD00009B
:100FF000F0B581B000270D460446009700F0B2FA24
:1010000021688A68D20543D406464868C00503D4DF
:10101000C86A10F4700F45D040F20800C2F2000018
:101020000768022000F05AFB216844F624130A697D
:10103000B7FBF0F0C2F292431A4206D1CA6844F6F6
:101040002413C0F292031A425ED00A6942F292431C
:10105000C1F249231A4207D1CA6842F29243C0F250
:1010600049031A4200F0C0800A6949F24923C0F2DC
:1010700024031A424FF0FC0257D1CF681F4208BF29
:101080005422009B02FB00F7BB4253D3C3E000BFD6
:10109000A06A40F02000A06284F82470012001B012
:1010A000F0BD00BF0868800700F1B580681C00F043
:1010B000A880FDB90868800772D50868800700F12C
:1010C000AA80086880076BD50868800700F1A380B4
:1010D0000868800764D50868800700F19C8008686C
:1010E00080075DD508688007E4D594E0086880072C
:1010F00000F1918000F036FA801B2168A842F5D9F2
:1011000008688007F2D44BE00A6942F29243C1F2C8
:1011100049231A424FF0290207D1CB6842F2924785
:10112000C0F249073B4208BF1422009B02FB00F7B4
:10113000BB4270D2681C4FD055BB0098B8422FD329
:101140000098013000900098B84264D20098B842EC
:1011500026D30098013000900098B8425BD20098E6
:10116000B8421DD30098013000900098B84252D286
:101170000098B84214D30098013000900098B8420B
:10118000DBD348E00098013000900098B84233D299
:1011900000F0E8F9801BA842F4D90098B842F1D2D7
:1011A000A06A40F00400A062002084F8240003201C
:1011B00001B0F0BD0098013000900098B8422AD2EA
:1011C0000098013000900098B84224D20098013075
:1011D00000900098B8421ED200980130009000980C
:1011E000B842E7D317E000BF5422009B02FB00F790
:1011F000BB429FD30FE000BF21680CE00868800766
:1012000009D40868800706D4086880075CBF0868AE
:101210005FEA8070F2D56FF012000860A06A40F4B7
:101220000070A062886800F46020B0F5602F01D1E2
:10123000207B18B1002001B0F0BD00BFA06A20F4EF
:101240008070A062A06AC004F4D4A06A40F00100DB
:10125000A062002001B0F0BD10B5044690F8240053
:10126000012804BF022010BD012084F8240020467C
:10127000FFF73AFC20B1002084F82400012010BDC3
:1012800042F2044C2068A16AC4F2010C40F201321F
:1012900091430CF57F7201F580719042A16233D0C9
:1012A000A16A21F48011A1624168490504D5A16AAF
:1012B000012363F30D31A162A16A0023C9044FF039
:1012C000000144BFE16A21F00601E1626FF0020112
:1012D00084F824300160816801F46021B1F5602F49
:1012E00006D190420AD1DCF8001011F4702F05D01D
:1012F000816841F480118160002010BD816841F453
:10130000A0018160002010BDDCF8001011F4702FE6
:10131000C6D0A16A41F48011A162DCF80010490531
:10132000C5D4C9E7B0B5044600F01CF9054640F243
:101330000000C2F200000078611C18BF044400BF26
:1013400000F010F9401BA042FAD3B0BD2DE9F04FD8
:1013500082B00E68002E00F0F58041F20002C4F267
:101360000102032340F2004E904208BF02234FF6D1
:10137000FF7CC4F2010E009300240123C1F2100C83
:101380004FF0000B4FF000094BE000BF40F6004269
:10139000C4F20102009F904208BF012704F00C0331
:1013A0000F229A402AEA020207FA03F34FEA9B054A
:1013B0001A4346F825204E6840F20C45F202DEF84A
:1013C000082054BF22EA080242EA0802C4F20105DA
:1013D000CEF808202A68B30254BF22EA080242EA83
:1013E00008022A60B303DEF8042054BF22EA080290
:1013F00042EA0802F303CEF80420DEF800204FF0A2
:10140000010354BF22EA080242EA0802CEF8002093
:101410000E680BF1010B36FA0BF204F1040400F034
:10142000918003FA0BFA16EA0A08F1D04E68664575
:1014300012DC122E56D8DFE806F0350B454955551B
:1014400055555555555555555555554D510000BF98
:10145000D1F80C9046E000BF4FF6FF72C1F22102B6
:1014600096420FDC0022C1F2110296421AD00022ED
:10147000C1F21202964215D00022C1F22102964218
:1014800010D02FE00022C1F2220296420AD00022A0
:10149000C1F23102964205D00022C1F232029642D8
:1014A00020D100BF8A684AB1012A14BFC0F814A035
:1014B000C0F810A04FF0080914E000BF4FF0040975
:1014C00010E000BFCA6802F108090BE04FF0000904
:1014D00008E000BFCA6802F1040903E0CA6802F12B
:1014E0000C0900BF22460646B8F5807F24BF203A8B
:1014F000043637680F25954027EA050509FA02F2F8
:101500002A433260CA79D2067FF582AF41F21803CE
:10151000C4F202031A68AEF57E7642F001021A6048
:101520001A6802F001020192019A2BF0030256F8A8
:1015300002A040F60002C4F2010290427FF426AFFE
:1015400000272BE702B0BDE8F08F0000806808405C
:1015500018BF012070470000002A08BF090401617C
:101560007047000040F2EC00C2F2000000687047D3
:1015700040F2000040F2EC01C2F20000C2F20001B1
:1015800000780A68104408607047000080B542F295
:101590000000C4F20200016841F010010160032064
:1015A00000F08CF80F2000F005F800F027F800207C
:1015B00080BD000070B540F20006C2F2000640F2A5
:1015C00008013278C2F200014FF47A730968B3FB64
:1015D000F2F20446B1FBF2F1084600F073FC0F2C66
:1015E0004FF0010508D838B94FF0FF3021460022EE
:1015F000002500F037F87460284670BD82B041F2D3
:101600001800C4F202000168042241F001010160E7
:10161000016801F0010101910199416841F0805197
:101620004160406800F08050009000980420C4F2AF
:101630000100016862F31A61016002B070470000A6
:10164000002848BF704700F01F01012202FA01F193
:101650001C2202EAD0004EF20012CEF200028150AB
:101660007047000010B54EF60C5CCEF2000CDCF8B2
:101670000030C3F3022E8EF00704042C28BF04248C
:10168000BEF103034FF0FF3E0EFA04F438BF00230F
:10169000A14399400EFA03F39A43114300F00F025D
:1016A00000F160430901043A03F5644362440028F1
:1016B00048BF02F10C03197010BD00004EF60C512A
:1016C000CEF200010A684FF6FF031A4060F30A22C7
:1016D00042F0806040F0FD700860704701280FD034
:1016E00002282DD0102808D141F20401C4F20201D1
:1016F0000A6851F8040CC00134D40020704700BFC0
:1017000041F20400C4F20200C16940F202320A4010
:10171000B2F5817F04BF4FF40040704701F440717F
:10172000B1F5407F2AD0B1F5007F1CBF0020704783
:10173000006A49F64041800701EAE070704700BF47
:1017400080B500F0ABF941F20401C4F2020109686E
:101750000222C1F3813102EB4101B0FBF1F0BDE89F
:1017600080407047C2F3834015A3185CD2030DD4A8
:1017700040F60012C0F23D02504313E050F8040C52
:101780004FF22441800301EAE07070470A6810A319
:10179000C2F340429A5C41F20023C0F27A03B3FBE9
:1017A000F2F250430968490248BF70474AF6AB213C
:1017B0004000CAF6AA21A0FB01014808704700BFFB
:1017C00002030405060708090A0B0C0D0E0F101082
:1017D000010200002DE9F04182B00446007841F298
:1017E0001C06C007C4F202064AD030685FEAC0088F
:1017F00008D4306840F080503060306800F080508D
:101800000190019847F20007C4F200073868C0054C
:1018100012D4386840F480703860FFF7A3FE0546A4
:101820003868C00508D4FFF79DFE401B6428F7D92F
:10183000032002B0BDE8F081706810F4407012D04F
:10184000616801F4407188420DD0706840F24042F6
:10185000C4F24222012320F4407113600023C00728
:101860001360716026D17068616820F4407008438D
:10187000B8F1000F706003D4306820F08050306001
:101880002068810707D556F8181CA26821F440414A
:10189000114346F8181CC00607D556F8180CE16825
:1018A00020F48000084346F8180C002002B0BDE880
:1018B000F08100BFFFF756FE054641F2883700BFB2
:1018C00070688007CFD4FFF74DFE401BB8424FF041
:1018D0000300F5D9EAE70000002804BF01207047A3
:1018E0002DE9F04381B042F20008C4F20208044638
:1018F000D8F800000D4600F0070088420CD2D8F856
:10190000000020F007002843C8F80000D8F80000C5
:1019100000F00700A8426CD1206841F20409810759
:10192000C4F2020917D5410705D5D9F8001041F4D2
:10193000E061C9F80010010705D5D9F8001041F49D
:101940006051C9F80010D9F80010A26821F0F00128
:101950001143C9F80010C00742D1D8F8000000F0C8
:101960000700A8420CD9D8F8000020F0070028434F
:10197000C8F80000D8F8000000F00700A84238D1ED
:101980002068410707D5D9F80010E26821F4E0612A
:101990001143C9F80010000708D5D9F800002169E3
:1019A00020F4605040EAC100C9F80000D9F80020D6
:1019B00002F00C00082841F20020C0F27A0051D158
:1019C00043F6D653C2F38341C0F60003595CD203F9
:1019D0003CD440F60010C0F23D00484342E000BF56
:1019E000606802280AD001282AD159F8041C89030A
:1019F00008D4012001B0BDE8F08300BF59F8041CF1
:101A00008901F6D5D9F8001021F003010843C9F87F
:101A10000000FFF7A7FD064641F28837D9F800001D
:101A2000616800F00C00B0EB810F96D0FFF79AFDD3
:101A3000801BB842F2D9032001B0BDE8F08300BF9B
:101A400059F8041C8907D4D5DCE700BFD9F8002079
:101A500043F6D453C2F34042C0F600039A5C4843B5
:101A6000B0FBF2F0D9F8001043F6BC52C1F30311F9
:101A7000C0F60002515C40F2080220FA01F140F287
:101A80000400C2F200000068C2F200021160FFF719
:101A900091FD002001B0BDE8F083000040F2080095
:101AA00041F20401C2F20000C4F2020100680968B8
:101AB00043F6CC52C1F3C221C0F60002515CC840CB
:101AC00070470000002804BF012070472DE9F04155
:101AD00082B00446007841F20006C007C4F2020654
:101AE0000CD0706800F00C00042840F08180306851
:101AF000800303D56068002800F04E8120788007BD
:101B00001BD5706810F00C0F09D0706800F00C0045
:101B1000082840F08B807068C00300F1878030682F
:101B2000800703D52069012840F03681306861695B
:101B300020F0F80040EAC10030602078000713D49C
:101B4000207840072CD4E569002D00F020817068D2
:101B500000F00C00082840F0AF80012D40F00C810F
:101B6000012002B0BDE8F081A069002800F08C805F
:101B70000020C4F242200121C0F88014FFF7F2FCDB
:101B8000054600BF706A800700F1BA80FFF7EAFCE3
:101B9000401B0228F6D9032002B0BDE8F08100BF47
:101BA000F0695FEAC00808D4F06940F08050F06145
:101BB000F06900F080500090009847F20007C4F2EE
:101BC00000073868C0054DD4386840F4807038602C
:101BD000FFF7C8FC054600BF3868C00542D4FFF7D0
:101BE000C1FC401B6428F7D9032002B0BDE8F08196
:101BF000706800F00C00082803D17068C0033FF53E
:101C000076AF6068002800F00981B0F5A02F00F0E1
:101C10001D81B0F5803F00F01D81306820F48030D8
:101C20003060306820F4802017E100BF2069002870
:101C300040F20000C4F2422000F08C8001210160DB
:101C4000FFF790FC054600BF306880073FF56EAF98
:101C5000FFF788FC401B0228F6D9032002B0BDE83C
:101C6000F08100BFE068002800F09A80052800F0AD
:101C7000B180012800F0B280306A20F001003062AB
:101C8000306A20F00400ACE00020C4F242200021C1
:101C9000C0F88014FFF766FC054600BF706A800735
:101CA0007FF54EAFFFF75EFC401B0228F6D90320FC
:101CB00002B0BDE8F08100BF0027C4F24227002037
:101CC0003866FFF74FFC022D05460DD130688001C4
:101CD00040F1D680FFF746FC401B02284FF003007E
:101CE000F4D902B0BDE8F081306880014FD5FFF72C
:101CF00039FC401B02284FF00300F5D9F1E700BF83
:101D000040F20800C2F20000006844F6D351C1F26C
:101D10006201A0FB0101480A019000BF00BF0198C9
:101D2000411E002801913FF40BAF00BF0198411EF6
:101D3000002801913FF404AF00BF0198411E002824
:101D400001913FF4FDAE00BF0198411E00280191B2
:101D5000E4D1F5E600210160FFF704FC054600BF71
:101D6000306880077FF5E9AEFFF7FCFB401B0228D7
:101D70004FF00300F4D9B4E77068216A00F48032B0
:101D80008A4209D1616A00F47010884204D10020AF
:101D900002B0BDE8F08100BF012002B0BDE8F081D3
:101DA000306A20F001003062306A20F004003062B6
:101DB000FFF7D8FB054641F2883700BF306A80073D
:101DC00022D5FFF7CFFB401BB8424FF00300F5D9F7
:101DD00087E700BF306A40F004003062306A40F0AC
:101DE00001003062FFF7BEFB054641F2883700BFB5
:101DF000306A800708D4FFF7B5FB401BB842F7D91B
:101E0000032002B0BDE8F081B8F1000F3FF59BAEB2
:101E1000F06920F08050F06195E600BF306820F452
:101E200080303060306820F480203060FFF79AFB0B
:101E3000054600BF306880037FF560AEFFF792FB78
:101E4000401B64284FF00300F4D94AE7306840F49F
:101E500080203060306840F480303060FFF782FBD3
:101E6000054600BF306880033FF548AEFFF77AFBB8
:101E7000401B6428F6D9032002B0BDE8F08100BF02
:101E8000206AB0F5803F05D17168A26821F4003165
:101E9000114371607168626A21F47411114308433F
:101EA000706001203866FFF75DFB044630688001F2
:101EB0003FF56DAFFFF756FB001B02284FF0030004
:101EC000F4D90EE7411E0020B0EB116F1CBF0120BA
:101ED00070474EF21002CEF2000251604EF62351CE
:101EE000CEF20001F0230B70072190601160704763
:101EF000704700007047000090F83C20012A4FF026
:101F0000020228D010B580F83D200268D2F804E023
:101F1000D2F808C00C682EF070032343B2F1804F52
:101F200053600BD042F60043C4F201039A4205D03D
:101F300040F20043C4F200039A4204D149682CF0F5
:101F40008003194391600121002280F83D1080F840
:101F50003C20BDE81040104670470000002804BF38
:101F60000120704710B5044690F83D0028B90020C4
:101F700084F83C00204600F051F8022084F83D002F
:101F8000206842F6004C0268B0F1804FC4F2010CA8
:101F900018BF604504D1A36822F070021A4305E01F
:101FA00040F20043C4F200039842F4D0B0F1804FF5
:101FB00018BF604504D1236922F440721A4305E03A
:101FC00040F20043C4F200039842F4D0A16922F029
:101FD0008002D4F804E0E368114360450160C36205
:101FE000C0F828E002D16169CCF8301001214161CC
:101FF000002084F8461084F83E1084F83F1084F8DE
:10200000401084F8411084F8421084F8431084F89A
:10201000441084F8451084F83D1010BD80B586B09A
:1020200001680020B1F1804F059001D006B080BD5D
:1020300041F21801C4F202014A6842F001024A600A
:102040004A6802F001020192019A0A6842F0040211
:102050000A60096801F00401019101994FF40041FF
:10206000CDE90210049040F60000C4F2010002A97C
:10207000FFF76CF90420C4F2010001684FF6FF423B
:10208000CFF6FF02114041F0E06141F48071016040
:102090001C2000210022FFF7E5FA1C20FFF7D0FAF0
:1020A00006B080BD90F83D1001291CBF012070478B
:1020B000022180F83D100068C168B0F1804F41F006
:1020C0000101C1600BD042F60041C4F20101884217
:1020D00005D040F20041C4F20001884206D1816877
:1020E00001F00701062904BF00207047016841F094
:1020F000010101600020704790F83C20012A4FF058
:10210000020200F0C58080B580F83D20D0F800C004
:102110004FF67772DCF8083023EA0202CCF8082088
:102120000B684F2B28DC1F2B44DD202B45D0302B98
:1021300043D0402B40F0AE80D1F804E0C968DCF811
:102140002030DCF8202022F00102CCF82020DCF83E
:10215000182022F0F00242EA011123F00A0242EABA
:102160000E02CCF81810CCF82020DCF8081041F052
:10217000470121F0300180E06F2B27DDB3F5005FD0
:1021800048D0B3F5805F7AD0702B40F08380D1E9DE
:1021900001E3C968DCF8082043EA0E0322F47F4219
:1021A00043EA01211143CCF80810DCF8081041F093
:1021B000770162E00BB1102B6CD1DCF8081021F034
:1021C0007001194341F0070157E000BF502B35D093
:1021D000602B5FD1D1F804E0C968DCF82030DCF86E
:1021E000202022F01002CCF82020DCF8182022F465
:1021F000704242EA013123F0A00242EA0E12CCF80A
:102200001810CCF82020DCF8081041F0670121F00C
:10221000100132E0D1E901E3C968DCF8082043EAA3
:102220000E0322F47F4243EA01211143CCF8081047
:10223000DCF8081041F480411FE000BFD1F804E051
:10224000C968DCF82030DCF8202022F00102CCF84C
:102250002020DCF8182022F0F00242EA011123F0DD
:102260000A0242EA0E02CCF81810CCF82020DCF862
:10227000081041F0570121F02001CCF8081000228D
:10228000012180F83D10002180F83C10BDE880401D
:10229000104670470122F3E77047000090F83C3089
:1022A000012B04BF022070474FEAB202032A00F25A
:1022B0008780F0B5DFE802F0022242600368D1E9CE
:1022C00000C5D1F80CE01C6A1A6AB3F1804F22F005
:1022D00001021A621A4652F8186F0BD042F60047F4
:1022E000C4F20107BB4205D040F20047C4F2000728
:1022F000BB426BD126F00306354369E00368D1E9A0
:1023000000E6D1E902C11C6A1A6A360222F0100204
:102310001A621A4652F8185F4FF2FF07BE4325F4BF
:10232000734561F30F3624F0A0040EF00A0746EA65
:10233000050144EA071711601F623AE00768D1E916
:1023400000C5D1E902313C6A3A6A61F3071522F40B
:1023500080723A623A4652F81C6F26F0F30645EA5C
:1023600006014FEA5C0666F3492411603C6211687D
:1023700021F00C01116039E00368D1E900E6D1E9F0
:1023800002C11C6A1A6A360222F480521A621A4684
:1023900052F81C5F4FF2FF07BE4325F4734561F30B
:1023A0000F364FEA5E0746EA050167F34D341160C8
:1023B0001C6211684FEA0C2321F44061116015E0A2
:1023C0000121002280F83C200846704746F00105B4
:1023D00024F00A070CF00A066EF3071537449D61D6
:1023E0001F629F6927F00C079F618B681168194372
:1023F00011600021BDE8F040002280F83C20084632
:1024000070470000002804BF0120704710B5044643
:1024100090F83D0028B9002084F83C00204600F0E8
:1024200051F8022084F83D00206842F6004C026812
:10243000B0F1804FC4F2010C18BF604504D1A3680D
:1024400022F070021A4305E040F20043C4F2000398
:102450009842F4D0B0F1804F18BF604504D1236991
:1024600022F440721A4305E040F20043C4F2000334
:102470009842F4D0A16922F08002D4F804E0E36825
:10248000114360450160C362C0F828E002D1616970
:10249000CCF8301001214161002084F8461084F806
:1024A0003E1084F83F1084F8401084F8411084F8FE
:1024B000421084F8431084F8441084F8451084F8DE
:1024C0003D1010BD7047000010B501680446086952
:1024D000800744BFC8685FEA807039D40869400744
:1024E00044BFC8685FEA40703ED40869000744BF33
:1024F000C8685FEA007045D40869C00644BFC86870
:102500005FEAC0604AD40869C0071CBFC8685FEAB8
:10251000C07051D10869000644BFC8685FEA006016
:1025200052D40869400644BFC8685FEA406053D48B
:102530000869800646BFC8685FEA806010BD6FF01A
:10254000200220460A61BDE81040FFF7D3BC00BF5F
:102550006FF002000861012020778869800743D06E
:102560002046FFF799FE45E06FF004000861022065
:102570002077886910F4407F40D02046FFF78CFE1A
:1025800042E000BF6FF00800086104202077C869AE
:1025900080073DD02046FFF77FFE3FE06FF0100040
:1025A000086108202077C86910F4407F3AD020469F
:1025B000FFF772FE3CE000BF6FF0010008612046AB
:1025C00000F03EF82168A5E76FF080000861204622
:1025D000FFF78EFC2168A4E76FF0400008612046F9
:1025E00000F04CF82168A3E7204600F025F82046CB
:1025F00000F024F82168002020776FE7204600F0E3
:102600001BF8204600F01AF82168002020776CE7BC
:10261000204600F011F8204600F010F82168002054
:10262000207769E7204600F007F8204600F006F81A
:1026300021680020207766E770470000704700009F
:102640000068B0F1804F18BF704780B540F20C00B1
:10265000C2F2000000680021C4F2A01101F0C8F924
:102660000246002840F6000018BF0122C4F2010013
:102670000221BDE88040FEF76FBF000070470000F8
:10268000FEE70000FEE70000FEE7000070470000E4
:1026900070470000FEF76CBF7047000040F2A400D6
:1026A000C2F20000FFF710BFFEE70000002001218A
:1026B00000F06EB810B51E20FEF734FE40F6004460
:1026C000C4F2010420464FF400510022FEF744FFFB
:1026D00020464FF480510122FEF73EFF20464FF482
:1026E00000610022FEF738FF20464FF4806100228F
:1026F000FEF732FF20464FF400410022FEF72CFF88
:1027000020464FF480410122FEF726FF20464FF479
:1027100080410022FEF720FF0020282100F038F839
:1027200000200C2100F034F80020062100F030F8E1
:1027300000200121BDE8104000F02AB810B5144671
:10274000032815D8DFE800F002060A0E6FF07F00BC
:10275000484009E0A1F1400006E000BFA1F170008F
:1027600002E000BFA1F13000C1B2002000F010F87B
:102770002078002808BF10BD013C00BFC1B2012075
:1027800000F006F8A07801340028F7D110BD000051
:1027900070B5064602200D46FEF7C4FD40F6004423
:1027A000C4F20104002E18BF012620464FF4004158
:1027B0003246FEF7D1FEEA0920464FF48061FEF76B
:1027C000CBFEC5F3801220464FF40061FEF7C4FE35
:1027D000C5F3401220464FF48051FEF7BDFEC5F30D
:1027E000001220464FF40051FEF7B6FE20464FF48B
:1027F00080410122FEF7B0FE20464FF480410022C6
:10280000FEF7AAFEC5F3C00220464FF48061FEF732
:10281000A3FEC5F3800220464FF40061FEF79CFE44
:10282000C5F3400220464FF48051FEF795FE05F0B7
:10283000010220464FF40051FEF78EFE20464FF471
:1028400080410122FEF788FE20464FF4804100229D
:10285000BDE87040FEF780BE94B0FEF797FE0AAC6C
:10286000201D2421FDF76DFD02200A9001200E900D
:10287000102000250F9020460395CDE901551195B4
:10288000FFF720F920B1EFF3108072B6FEE700BF2A
:102890000F20CDE9050505A80021CDE907550995CB
:1028A000FFF71AF820B1EFF3108072B6FEE700BF11
:1028B0004FF0020800276846CDF800800297FEF727
:1028C00089FF28B1EFF3108072B600BFFEE700BFAA
:1028D00041F21800C4F20200016840F6004A41F0DB
:1028E000200101600168C4F2010A01F020010A918F
:1028F0000A990168AAF5806541F004010160016848
:10290000002201F004010A910A9901680E2441F0A5
:102910000801016000680E2100F008000A900A9882
:102920002846FEF719FE50464FF47C4100224FF432
:102930007C49FEF711FE0A9401240BA80AAE80E838
:10294000900128463146FEF701FD50463146CDE95B
:102950000A94CDE90C78FEF7F9FC40F27008C2F257
:1029600000080AF5C051404640F8041F4FF46021AA
:1029700004730775C161C0E901770461FEF74CFA81
:1029800020B1EFF3108072B6FEE700BF08F1040536
:1029900000260AA92846CDE90A640C96FEF702F93A
:1029A00020B1EFF3108072B6FEE700BF4FF0804118
:1029B000404640F8341F4FF6FF710D96CDE90B6687
:1029C000CDE90066C0E90166C0E903168661FFF73C
:1029D000C5FA28B1EFF3108072B600BFFEE700BF62
:1029E0004FF4805008F134060A900AA93046FFF7E8
:1029F00083FB28B1EFF3108072B600BFFEE700BF83
:102A00003046FFF7FFFC28B1EFF3108072B600BF2D
:102A1000FEE700BF69463046FFF76EFA20B1EFF3DC
:102A2000108072B6FEE700BF002001210590CDE9BD
:102A30000610089005A930460022FFF72FFC28B1A8
:102A4000EFF3108072B600BFFEE700BFFFF732FE63
:102A500043F6F357C0F60007002000213A46FFF77F
:102A60006DFE4FF4FA60FEF75DFCFFF71FFE0020DD
:102A700000213A46FFF762FE3046FFF713FB40F2B3
:102A80000C090024C2F200090AAFC4F2C82416E0FF
:102A90005E46C9F800B0304600F00EFF0B4643F624
:102AA000E65102463846C0F60001FDF7AFFB0120B3
:102AB00000213A46FFF742FE3220FEF733FC28465B
:102AC000FEF7CAFB28464FF0FF31FEF791FAB8B97E
:102AD0002846FEF725F900F0E7FF00F0EDFE4FF67F
:102AE00000630022C4F2AF0300F08EFC002300223A
:102AF000C4F2590300F0E2FD00F054FCC9F80000F4
:102B000050460121FEF722FD012811D198F800005E
:102B100070B9D9F800004FF07C5100F0F9FEC9F807
:102B20000000012088F80000C820FEF7FBFB08E049
:102B300050460121FEF70AFD002804BF002088F856
:102B4000000050460221FEF701FD012812D198F83D
:102B5000010078B9D9F800004FF03F4100F0D8FEED
:102B6000C9F80000012088F80100C820FEF7DAFB50
:102B700009E000BF50460221FEF7E8FC002804BF30
:102B8000002088F80100D9F80060002130464FF09D
:102B9000000B00F042FF00287FF47AAF3046214658
:102BA00000F034FF0028A3463FF472AF73E75FEAFA
:102BB000400C08BF91F0000F4FEA8C234FEAC1226E
:102BC00043EA51514FEA1C5018BF00F5F0404FEA5C
:102BD000300018BF41F000415FEA6C5C00F02980D2
:102BE000BCF1FF3F08BF40F080407047130C06BFA8
:102BF00012044FF0100C4FF0000C130E04BF120221
:102C00000CF1080C130F04BF12010CF1040C930F0C
:102C100004BF92000CF1020CD30F04BF52000CF160
:102C2000010C11464FF00002A0F11F00A0EB0C00B8
:102C3000704711F0004F08BF704731F000413FF47A
:102C4000D5AF0B0C06BF09044FF0100C4FF0000C71
:102C50000B0E04BF09020CF1080C0B0F04BF090195
:102C60000CF1040C8B0F04BF89000CF1020CCB0F8C
:102C700004BF49000CF1010CCCF1200322FA03F34C
:102C800041EA030102FA0CF2A0EB0C0000F1010092
:102C90007047000023F07F4720F07F4C80EA03005C
:102CA00000F00040ACEB070303F57C5303F1FF0396
:102CB0002DE9804909B44FEA144324EA03484FEA56
:102CC000154B25EA0B4E0FF2042606EB13273E7830
:102CD00003FB0667C7F5000707FB06F64FEAD64673
:102CE00006F102064FEA543707FB066CCCF1005C94
:102CF0004FEA1C472CEA074C0CFB06F507FB06F4D1
:102D000004EB15464FEA961649085FEA320234BFD3
:102D100000204FF000404FEAD13706FB07FC4FEA96
:102D20001C4C0CFB0BF7D21B03FB0CF761EB0701F0
:102D30000CFB0EF7B0EB074072EB17420CFB08F7E9
:102D400034BFA2EB0742B2EB074261EB17414FEAF7
:102D50000C444FEA910706FB07FC4FEA1C4C0CFBA6
:102D60000BF7B0EBC74072EB573203FB0CF734BFE5
:102D7000A2EBC742B2EBC74261EB57310CFB0EF737
:102D8000B0EBC70072EB57720CFB08F734BFA2EB35
:102D9000C702B2EBC70261EB57714FEA816141EAAA
:102DA00092114FEA826242EA90124FEA806004EB8D
:102DB000CC04039F4FEAD13706FB07FC4FEA1C4CBB
:102DC0000CFB0BF7D21B03FB0CF761EB07010CFBB1
:102DD0000EF7B0EB074072EB17420CFB08F734BF5D
:102DE000A2EB0742B2EB074261EB17414FEA8C5569
:102DF00004EB9C244FEA910706FB07FC4FEA1C4CAE
:102E00000CFB0BF7B0EBC74072EB573203FB0CF730
:102E100034BFA2EBC742B2EBC74261EB57310CFBA8
:102E20000EF7B0EBC70072EB57720CFB08F734BF1C
:102E3000A2EBC702B2EBC70261EB57714FEA8161A7
:102E400041EA92114FEA826242EA90124FEA8060B0
:102E500015EB4C2544F100044FEAD13706FB07FC83
:102E60004FEA1C4C0CFB0BF7D21B03FB0CF761EB7E
:102E700007010CFB0EF7B0EB074072EB17420CFB9F
:102E800008F734BFA2EB0742B2EB074261EB1741F0
:102E90004FEA813141EA92414FEA823242EA90425E
:102EA0004FEA80304FEA0C7615EB1C1544F1000414
:102EB00048EA03434EEA0B484FF0000EB2EB080C11
:102EC00071EB030724BF624639464EEB0E0E4FF0FE
:102ED000000B0018524149414BEB0B0BB2EB080CB5
:102EE00071EB03077BF1000B24BF624639464EEBC2
:102EF0000E0E4FF0000B0018524149414BEB0B0BEB
:102F0000B2EB080C71EB03077BF1000B24BF6246A8
:102F100039464EEB0E0E51EA020718BF46F0010685
:102F200016EB0E7655F1000254F1000103D5BDE811
:102F30008901BDE80088BDE88901BDE80048B619EF
:102F4000524141EB0101A3F10103704780807F7E74
:102F50007D7C7B7A7978777676757473727171700F
:102F60006F6E6E6D6C6C6B6A6A69686867666665C1
:102F70006464636362616160605F5F5E5E5D5D5C4F
:102F80005C5B5B5A5A5959585857575656555555C0
:102F90005454535352525251515050504F4F4F4E20
:102FA0004E4D4D4D4C4C4C4B4B4B4A4A4A4949496E
:102FB00048484847474747464646454545444444B0
:102FC0004443434343424242424141419C46002BD9
:102FD00030D477002BD04FEA37071CB503B44FF03D
:102FE00010004FF01001BAF1000F06D0BCF1000F35
:102FF000DCBF40F0080040F008014FF000000FBCBB
:10300000BDE810400BF1010BBBF1010F08BF5FEAF7
:10301000170722BF12F1010211F101014FF0004127
:1030200043F1000300F0004043EA00007047F9D389
:103030005708D0E746EA06464FEA164613F1400F16
:103040001FDD13F1200FDFBF16430A460021203396
:103050005B42BED0C3F1200746EA06464FEA164659
:1030600002FA07F746EA070622FA03F2C3F120073D
:1030700001FA07F742EA070221FA03F14FF00003D1
:10308000A7E746EA020646EA06464FEA164646EA39
:103090000106BCBF46EA0646360C4FF000034FF06F
:1030A00000024FF0000194E72DE9804C70B49A467D
:1030B000934691E8380007C831EA400C48BF34EA2B
:1030C000430C03D5FFF7E6FDFFF780FFF0BCBDE83A
:1030D000008C2DE9804C70B49A46934691E83800F4
:1030E00007C810F0804F08BF13F0804F03D100F0E5
:1030F00005F8FFF76BFFF0BCBDE8008C20F07F47C0
:1031000023F07F4C80EA030000F0004007EB0C0343
:10311000A3F57C53A3F1FE0392F0000F00F0B380FF
:1031200095F0000F00F077802DE901494FEA11403A
:1031300021EA00484FEA144624EA064700FB06FC51
:1031400008FB06F607FB08F818EB06484CEB164C94
:1031500000FB07F718EB07484CEB17404FEA124B00
:1031600022EA0B4E4FEA154625EA06470BFB06FC02
:103170000EFB06F607FB0EFE1EEB064E4CEB164C46
:103180000BFB07F71EEB074E4CEB174B18EB0B082E
:1031900040F1000018EB0E0B58EB000840F1000066
:1031A0008F1A4FF000014FF000063CBFC943661B69
:1031B00014BFB5EB040C00213CBFC943F61B4FEA1A
:1031C000174427EA04454FEA1C472CEA074C04FB46
:1031D000076205FB07F70CFB05F616EB074642EB0B
:1031E000174204FB0CFC16EB0C4642EB1C421BEB9B
:1031F000060658EB020241414EEA8E0E46EA9E0652
:1032000001D5BDE80189B619524141EB0101A3F195
:103210000103BDE801894FEA144524EA05464FEA57
:10322000114721EA074C05FB07F406FB07F70CFBE7
:1032300006F111EB074144EB174405FB0CFC11EBC5
:103240000C4144EB1C444FEA124722EA074C05FBB1
:1032500007F206FB07F70CFB06F616EB074642EBF8
:10326000174205FB0CFC16EB0C4642EB1C456A189A
:1032700054F1000148BF7047B619524141EB0101BA
:10328000A3F10103704795F0000F37D04FEA1142C8
:1032900021EA02464FEA144724EA074C02FB07F1F1
:1032A00006FB07F70CFB06F414EB074441EB174150
:1032B00002FB0CFC14EB0C4441EB1C414FEA15479C
:1032C00025EA074C02FB07F506FB07F70CFB06F6A1
:1032D00016EB074645EB174502FB0CFC16EB0C46BC
:1032E00045EB1C42121951F1000148BF7047B61955
:1032F000524141EB0101A3F1010370474FEA14452C
:1033000024EA05464FEA114721EA074C05FB07F17D
:1033100006FB07F70CFB06F212EB074241EB1741E5
:1033200005FB0CFC12EB0C4251EB1C414FF000066C
:1033300048BF7047921841EB0101A3F101037047A8
:10334000490050EAC12018BF04204A0D18BF40F0C0
:10335000010040F2FF72B2EB515F08BF40F0020083
:10336000012808BF0520704730380A2801D2012003
:10337000704700207047000010B500290AD0087877
:10338000002807D005487844FDF760FB002801D0ED
:10339000002010BD0248784410BD00009A0A0000C9
:1033A000920A000021F0004201F00043A2F16052B5
:1033B000B2F5801F28BFD2F17F6C0BD95FEA001CE9
:1033C00043EAC20242EB507018BF704728BF20F09A
:1033D00001007047B2F5801FBCBF184670474FEA26
:1033E000410C1CF5001F02D2084600F01FBC70B54E
:1033F00000F00EFA00000089FFF7F6BF4FF0004022
:10340000A0F58000704700002DE9C04130B4DFF81E
:10341000A4C23CEA111418BF3CEA131400F0ED807A
:103420001CEA111481EA030544EAD57418BF1CEAAA
:10343000131500F0C880A4EB050404F17F7404F5B3
:1034400000344FF0004545EAC12145EAC32341EA73
:10345000505143EA52534FEAC0204FEAC2229942E8
:1034600008BF904200F09D804FEA13650FF24416AA
:10347000765D4FEA134506FB05F7C7F1807706FB3B
:1034800007F74FEAD737A7FB03687642A7FB06CEBC
:10349000C8F5803838BFA8F1010807FB08E6A6FB8D
:1034A000028C4FF0000EE6FB03CEDCF1000CCEF1F7
:1034B000004E38BFAEF1010EA6FB0C584FF00007CE
:1034C000E6FB0E87A1FB08C6A0FB07CE16EB0E0697
:1034D0004FF0000545F10005E1FB076515F1E04EF1
:1034E0007EBFA4F580345FEA46066D4116F1800781
:1034F00045F100054FEA172747EA05674FEA15250A
:103500004FEA0666A6F1DE46B6F1805F20D938465E
:1035100005EBC47124F0010C01EB0C11BCF1FE6F42
:1035200002D8F0BCBDE8008124425CBF01F5801EDA
:103530009EEAC47F02D4F0BCBDE80081244200F1C1
:103540003980A1F1C041F0BCBDE8004100F0AEB946
:103550004FEAD02040EA41504FEAD1214FEAD2222F
:1035600042EA43524FEAD323A7FB028607FB0366D6
:1035700005FB02661EEA0E0F58BFA6EB0056B6EB1F
:1035800000564FEA520E4EEAC37E18EB0E0E56EB73
:10359000530EBCD518EB02085E417F1C55F10005A7
:1035A000B5E74FF480154FF000074FF000064FF0DD
:1035B0000008ACE701F1C04101F000414FF000000C
:1035C000F0BCBDE800810CEA131511EA0C1F00D015
:1035D0000CE013EA0C1F00F026804FF0000081EA97
:1035E000030101F00041F0BCBDE80081F0BCBDE882
:1035F000004181EA030100F059B9F0BCBDE8004187
:1036000070B500F005F900BF097EFC3E00F007B878
:103610004FF0000081EA030101F00041704781EAA8
:10362000030100F043B9F0BCBDE8004122494FF06E
:1036300000007047FFFDFBF9F7F5F4F2F0EEEDEB5B
:10364000E9E8E6E4E3E1E0DEDDDBDAD8D7D5D4D3A0
:10365000D1D0CFCDCCCBCAC8C7C6C5C4C2C1C0BFEC
:10366000BEBDBCBBBAB9B8B7B6B5B4B3B2B1B0AFF2
:10367000AEADACABAAA9A8A8A7A6A5A4A3A3A2A1D6
:10368000A09F9F9E9D9C9C9B9A9999989797969591
:1036900095949393929191908F8F8E8E8D8C8C8B2D
:1036A0008B8A8989888887878685858484838382B5
:1036B000828181800000FF070000F87F70B5DFF88D
:1036C00048C11CEA111E1EBF1CEA13159EEA0C0F0E
:1036D00095EA0C0F00F06F8081EA03044EEAD47E75
:1036E000AE4421EA4C1123EA4C1341F4801143F417
:1036F0008013AEF17F7EA1FB024CA0FB036536195F
:1037000055EB0C05A1FB034C4CF10003A0FB021C84
:1037100016EB0C06654153F10003094218BF46F051
:10372000010613F4007F0BD14FEA03314FEA053055
:1037300041EA155140EA165034036FF003020AE0E3
:103740004FEAC3214FEAC52041EA555140EA56509D
:10375000F4026FF0020202EB2E4201EB025585EA01
:10376000CE710AD05FEA440C18BF24F0004450F137
:10377000000041F1000120EAD47040F2FE7C624575
:1037800000D270BDA84214BF4FF080444FF04044B7
:10379000002E08BF0024BEF1806FA8BFA1F1C04178
:1037A000BDE8704080F2828001F1C04101F000412B
:1037B0004FF0000070470CEA13159EEA0C0F18BF7B
:1037C00095EA0C0F06D081EA030E4FF000000EF0D0
:1037D000004170BD00F01CF88900013E00F007B800
:1037E00000F009B84FEA430C5FEA5C5C08D081EA5C
:1037F000030100F05BB84FEA410C5FEA5C5CF6D174
:1038000002494FF0000070470000FF070000F87FFA
:103810000EF1020E2EF0030E5EF8046B364205D454
:10382000012A43EB030515F5001F12D8012841EBCF
:10383000010C1CF5001F0CD80ED14FEAD17C0CEB0B
:103840004C0C0CF1020C15F5001F08BF4CEBD37C9F
:1038500004E04FF0080C01E04FEAD37C0CEB4C0580
:1038600026FA05F606F00706B6F1040C06D20EEBB2
:10387000860CBDE870404CF0010C6047DFE80CF0AE
:10388000090B02024FF00041A1F500214FF00000AA
:1038900070BD19461046012851EB010418BFD4F53C
:1038A000001484BF002001F0004170BD0808A0F59D
:1038B00000114FEA3101704743004FEAD30C4FEA41
:1038C0003C0C43401FBF40070CF1605113F0FE4F0A
:1038D00070471CF0006F03D10CF0004100207047CE
:1038E0000CF0004343EA507040EACC0010B500F001
:1038F00057F900BF000000924FEA0001FFF7D6BF62
:103900004FF00041A1F500214FF00000704700008A
:1039100090EA010F48BF81F0004100F19481421A02
:103920003CBF801A89184FEAD052A2EBD1534FF016
:103930007F4C1CEA410F18BF9CEA026F00F03B80ED
:103940004FF0004C4CEA00204CEA012121FA03FC24
:1039500010EB0C0C1ED202F1FF325FEA1C2040EB90
:10396000C25038BF70471CF07F0F4FEA400C18BFA1
:10397000BCF17F4F38BF7047C3F12003994008BFA7
:1039800020F00100BCF17F4F38BF7047A0F1C0406C
:1039900000F04CB94FEA3C00000A40EBC25028BF8F
:1039A0001CF0FF0F4FEA400CE6D018BFBCF17F4F70
:1039B00038BF7047EAE79CEA026F05D010EA5C0F57
:1039C00008BF00F00040704710B500F0E9F800BFF4
:1039D00064FBBE3E10B500F033F80CBF01200020A0
:1039E00010BD10B500F02CF814BF0120002010BD50
:1039F00010B500F06DF88CBF0120002010BD10B58F
:103A000000F066F82CBF0120002010BD10B500F0BA
:103A100093F894BF0120002010BD10B500F08CF881
:103A200034BF0120002010BD401058BFC0F14040FD
:103A3000491058BFC1F140418142EFF30080704707
:103A400050EA010C00F113801CF5000F58BFBCF5C3
:103A5000000F01D48842704707D710F5000F58BFF8
:103A600011F5000F15D488427047894270471CF544
:103A7000000F04D5BCF5000FF7D5814270474FF019
:103A8000807C1CEB400F38BF1CEB410F01D2814200
:103A9000704710B500F084F8922449004FF00050B0
:103AA0004FF08051FFF7C0BFB0FA80F310FA03F275
:103AB000C3F19D030AD0D90501EB1220530638BF8C
:103AC000704700F1010008BF20F0010070470000BE
:103AD00050EA010C00F113801CF5000F58BFBCF533
:103AE000000F01D48842704707D710F5000F58BF68
:103AF00011F5000F15D488427047894270471CF5B4
:103B0000000F04D5BCF5000FF7D5814270474FF088
:103B1000807C1CEB400F38BF1CEB410F01D281426F
:103B2000704710B500F03CF8922449004FF08050E7
:103B30004FF00051FFF778BF50EA010C00F11380FD
:103B40001CF5000F58BFBCF5000F01D48842704728
:103B500007D710F5000F58BF11F5000F15D4884294
:103B60007047894270471CF5000F04D5BCF5000F63
:103B7000F7D5814270474FF0807C1CEB400F38BF77
:103B80001CEB410F01D28142704710B500F008F8DC
:103B9000922449004FF000504FF08051FFF744BF8E
:103BA0000EF1020E2EF0030E5EF8044B244204D4F4
:103BB0004FEA4102B2F17F4F11D84FEA4003B3F10F
:103BC0007F4F0CD80ED14FEAD07C0CEB4C0C0CF193
:103BD000020CB2F17F4F08BF4CEBD17C04E04FF0F8
:103BE000080C01E04FEAD17C0CEB4C0324FA03F4FF
:103BF00004F00704B4F1040C06D20EEB840CBDE80B
:103C000010404CF0010C6047DFE80CF0070802029E
:103C10004FF00040A0F5800010BD0846420018BFDC
:103C2000D2F1807288BF00F0004010BDFF2141EA50
:103C3000D050C0057047000090EA010F48BF81F0E6
:103C400000413FF56CAE421A04D882F00042A0EB6E
:103C5000020011444FEAD052A2EBD1534FF07F4CF7
:103C60001CEA410F18BF9CEA026F4AD04FF0004C8B
:103C70004CEA00204CEA012121FA03FCB0EB0C0CC9
:103C80000FD412F0FE0F36D05FEA4C001DD50012A3
:103C900040EBC25038BF70471CF03F0F18BF704751
:103CA0000BE05FEA1C20A2F1010240EBC25038BFDA
:103CB00070471CF07F0F18BF7047C3F12003994075
:103CC00014BF401E20F0010070474FEA1223800805
:103CD00008BF7047B0FA80FCA2EB0C02CCF1280CB4
:103CE00060FA0CF093EA122F04BF00EBC250704749
:103CF0004FEAC3707047130A5FEADC1008BF7047D1
:103D0000F6E79CEA026F04D010EA5C0F08BF0020BF
:103D1000704710B5FFF744FF40DFF63E81F00040EA
:103D20007047FCF710BC000002400000000000A03B
:103D30000000000005400000000000C80000000076
:103D40000C4000000000409C0000000019400000F2
:103D50000020BCBE0000000034400000BFC91B8E24
:103D600000000004B5400000504BCFD06607E2CF02
:103D7000010000006C4100003E8251AADFEEA73432
:103D800001000000D9420000DCB5A0E23A301F97E4
:103D9000FFFFFFFFB4450000FD25A0C8E9A3C14F08
:103DA000FFFFFFFFFF3F0000000000800000000059
:103DB000FF3F000000000080000000000000000045
:103DC00000000000010203040607080900000000CB
:103DD00001020304010202030405060708090A0B95
:103DE0000C0D0E0F101054656D703A20252E3266A2
:103DF00020430054656D7020436F6E74726F6C00C9
:103E0000403E0008000000201000000050010008A3
:103E1000503E000810000020E0060000700100087D
:103E20001C00000043000000F8FFFFFF0C00000032
:103E30000E0000000F0000002E0000000000000037
:103E400001000000100000000024F4000000B44253
:04000005080000ED02
:00000001FF
